{
  "_format": "hh-sol-artifact-1",
  "contractName": "VotingSystem",
  "sourceName": "contracts/VotingSystem.sol",
  "abi": [
    {
      "inputs": [],
      "stateMutability": "nonpayable",
      "type": "constructor"
    },
    {
      "inputs": [
        {
          "internalType": "uint256",
          "name": "_voting_id",
          "type": "uint256"
        },
        {
          "internalType": "uint256",
          "name": "_vote_option",
          "type": "uint256"
        },
        {
          "internalType": "bytes32",
          "name": "_hash",
          "type": "bytes32"
        }
      ],
      "name": "addVote",
      "outputs": [],
      "stateMutability": "nonpayable",
      "type": "function"
    },
    {
      "inputs": [
        {
          "internalType": "string[]",
          "name": "options",
          "type": "string[]"
        },
        {
          "internalType": "string",
          "name": "title",
          "type": "string"
        },
        {
          "internalType": "string",
          "name": "content",
          "type": "string"
        },
        {
          "internalType": "uint256",
          "name": "expiration_time",
          "type": "uint256"
        }
      ],
      "name": "addVoting",
      "outputs": [],
      "stateMutability": "nonpayable",
      "type": "function"
    },
    {
      "inputs": [],
      "name": "chairperson",
      "outputs": [
        {
          "internalType": "address",
          "name": "",
          "type": "address"
        }
      ],
      "stateMutability": "view",
      "type": "function"
    },
    {
      "inputs": [],
      "name": "getVoterVotingsIds",
      "outputs": [
        {
          "internalType": "uint256[]",
          "name": "",
          "type": "uint256[]"
        }
      ],
      "stateMutability": "view",
      "type": "function"
    },
    {
      "inputs": [],
      "name": "getVotes",
      "outputs": [
        {
          "components": [
            {
              "internalType": "uint256",
              "name": "voting_id",
              "type": "uint256"
            },
            {
              "internalType": "uint256",
              "name": "vote_option",
              "type": "uint256"
            }
          ],
          "internalType": "struct VotingSystem.Vote[]",
          "name": "",
          "type": "tuple[]"
        }
      ],
      "stateMutability": "view",
      "type": "function"
    },
    {
      "inputs": [
        {
          "internalType": "uint256",
          "name": "_voting_id",
          "type": "uint256"
        }
      ],
      "name": "getVoting",
      "outputs": [
        {
          "components": [
            {
              "internalType": "uint256",
              "name": "voting_id",
              "type": "uint256"
            },
            {
              "internalType": "string[]",
              "name": "options",
              "type": "string[]"
            },
            {
              "internalType": "string",
              "name": "title",
              "type": "string"
            },
            {
              "internalType": "string",
              "name": "content",
              "type": "string"
            },
            {
              "internalType": "uint256",
              "name": "expiration_time",
              "type": "uint256"
            }
          ],
          "internalType": "struct VotingSystem.Voting",
          "name": "",
          "type": "tuple"
        }
      ],
      "stateMutability": "view",
      "type": "function"
    },
    {
      "inputs": [],
      "name": "getVotings",
      "outputs": [
        {
          "components": [
            {
              "internalType": "uint256",
              "name": "voting_id",
              "type": "uint256"
            },
            {
              "internalType": "string[]",
              "name": "options",
              "type": "string[]"
            },
            {
              "internalType": "string",
              "name": "title",
              "type": "string"
            },
            {
              "internalType": "string",
              "name": "content",
              "type": "string"
            },
            {
              "internalType": "uint256",
              "name": "expiration_time",
              "type": "uint256"
            }
          ],
          "internalType": "struct VotingSystem.Voting[]",
          "name": "",
          "type": "tuple[]"
        }
      ],
      "stateMutability": "view",
      "type": "function"
    },
    {
      "inputs": [
        {
          "internalType": "bytes32",
          "name": "_hash",
          "type": "bytes32"
        }
      ],
      "name": "setHash",
      "outputs": [],
      "stateMutability": "nonpayable",
      "type": "function"
    },
    {
      "inputs": [],
      "name": "voting_id",
      "outputs": [
        {
          "internalType": "uint256",
          "name": "",
          "type": "uint256"
        }
      ],
      "stateMutability": "view",
      "type": "function"
    }
  ],
  "bytecode": "0x60a06040526000805534801561001457600080fd5b503373ffffffffffffffffffffffffffffffffffffffff1660808173ffffffffffffffffffffffffffffffffffffffff1681525050608051611f17610072600039600081816104240152818161052f0152610a390152611f176000f3fe608060405234801561001057600080fd5b50600436106100935760003560e01c80633afc7282116100665780633afc72821461010e5780634613b9721461013e578063807256921461015a5780638ff97fd314610176578063c9ada2741461019457610093565b806305c1112d146100985780630c4c4285146100b65780630dc96015146100d25780632e4176cf146100f0575b600080fd5b6100a06101b2565b6040516100ad91906110c0565b60405180910390f35b6100d060048036038101906100cb919061112c565b610422565b005b6100da6104ba565b6040516100e79190611237565b60405180910390f35b6100f861052d565b604051610105919061129a565b60405180910390f35b610128600480360381019061012391906112e1565b610551565b6040516101359190611392565b60405180910390f35b610158600480360381019061015391906113b4565b61079e565b005b610174600480360381019061016f9190611622565b610a37565b005b61017e610b95565b60405161018b919061178c565b60405180910390f35b61019c610c2a565b6040516101a991906117bd565b60405180910390f35b60606002805480602002602001604051908101604052809291908181526020016000905b8282101561041957838290600052602060002090600502016040518060a00160405290816000820154815260200160018201805480602002602001604051908101604052809291908181526020016000905b828210156102d457838290600052602060002001805461024790611807565b80601f016020809104026020016040519081016040528092919081815260200182805461027390611807565b80156102c05780601f10610295576101008083540402835291602001916102c0565b820191906000526020600020905b8154815290600101906020018083116102a357829003601f168201915b505050505081526020019060010190610228565b5050505081526020016002820180546102ec90611807565b80601f016020809104026020016040519081016040528092919081815260200182805461031890611807565b80156103655780601f1061033a57610100808354040283529160200191610365565b820191906000526020600020905b81548152906001019060200180831161034857829003601f168201915b5050505050815260200160038201805461037e90611807565b80601f01602080910402602001604051908101604052809291908181526020018280546103aa90611807565b80156103f75780601f106103cc576101008083540402835291602001916103f7565b820191906000526020600020905b8154815290600101906020018083116103da57829003601f168201915b50505050508152602001600482015481525050815260200190600101906101d6565b50505050905090565b7f000000000000000000000000000000000000000000000000000000000000000073ffffffffffffffffffffffffffffffffffffffff163373ffffffffffffffffffffffffffffffffffffffff16146104b0576040517f08c379a00000000000000000000000000000000000000000000000000000000081526004016104a7906118bb565b60405180910390fd5b8060018190555050565b60606003805480602002602001604051908101604052809291908181526020016000905b82821015610524578382906000526020600020906002020160405180604001604052908160008201548152602001600182015481525050815260200190600101906104de565b50505050905090565b7f000000000000000000000000000000000000000000000000000000000000000081565b610559610d06565b6002828154811061056d5761056c6118db565b5b90600052602060002090600502016040518060a00160405290816000820154815260200160018201805480602002602001604051908101604052809291908181526020016000905b828210156106615783829060005260206000200180546105d490611807565b80601f016020809104026020016040519081016040528092919081815260200182805461060090611807565b801561064d5780601f106106225761010080835404028352916020019161064d565b820191906000526020600020905b81548152906001019060200180831161063057829003601f168201915b5050505050815260200190600101906105b5565b50505050815260200160028201805461067990611807565b80601f01602080910402602001604051908101604052809291908181526020018280546106a590611807565b80156106f25780601f106106c7576101008083540402835291602001916106f2565b820191906000526020600020905b8154815290600101906020018083116106d557829003601f168201915b5050505050815260200160038201805461070b90611807565b80601f016020809104026020016040519081016040528092919081815260200182805461073790611807565b80156107845780601f1061075957610100808354040283529160200191610784565b820191906000526020600020905b81548152906001019060200180831161076757829003601f168201915b505050505081526020016004820154815250509050919050565b600154811415806107b157506000600154145b156107f1576040517f08c379a00000000000000000000000000000000000000000000000000000000081526004016107e890611956565b60405180910390fd5b60005483101580610803575060008054145b15610843576040517f08c379a000000000000000000000000000000000000000000000000000000000815260040161083a906119c2565b60405180910390fd5b60028381548110610857576108566118db565b5b9060005260206000209060050201600401544211156108ab576040517f08c379a00000000000000000000000000000000000000000000000000000000081526004016108a290611a54565b60405180910390fd5b6108b483610c30565b156108f4576040517f08c379a00000000000000000000000000000000000000000000000000000000081526004016108eb90611ac0565b60405180910390fd5b60016002848154811061090a576109096118db565b5b9060005260206000209060050201600101805490506109299190611b0f565b8211806109365750600082105b15610976576040517f08c379a000000000000000000000000000000000000000000000000000000000815260040161096d90611b8f565b60405180910390fd5b600460003373ffffffffffffffffffffffffffffffffffffffff1673ffffffffffffffffffffffffffffffffffffffff1681526020019081526020016000208390806001815401808255809150506001900390600052602060002001600090919091909150556003604051806040016040528085815260200184815250908060018154018082558091505060019003906000526020600020906002020160009091909190915060008201518160000155602082015181600101555050505050565b7f000000000000000000000000000000000000000000000000000000000000000073ffffffffffffffffffffffffffffffffffffffff163373ffffffffffffffffffffffffffffffffffffffff1614610ac5576040517f08c379a0000000000000000000000000000000000000000000000000000000008152600401610abc90611bfb565b60405180910390fd5b60026040518060a001604052806000548152602001868152602001858152602001848152602001838152509080600181540180825580915050600190039060005260206000209060050201600090919091909150600082015181600001556020820151816001019080519060200190610b3f929190610d35565b506040820151816002019081610b559190611dc7565b506060820151816003019081610b6b9190611dc7565b50608082015181600401555050600080815480929190610b8a90611e99565b919050555050505050565b6060600460003373ffffffffffffffffffffffffffffffffffffffff1673ffffffffffffffffffffffffffffffffffffffff168152602001908152602001600020805480602002602001604051908101604052809291908181526020018280548015610c2057602002820191906000526020600020905b815481526020019060010190808311610c0c575b5050505050905090565b60005481565b600080600090505b600460003373ffffffffffffffffffffffffffffffffffffffff1673ffffffffffffffffffffffffffffffffffffffff16815260200190815260200160002080549050811015610cfb5782600460003373ffffffffffffffffffffffffffffffffffffffff1673ffffffffffffffffffffffffffffffffffffffff1681526020019081526020016000208281548110610cd457610cd36118db565b5b906000526020600020015403610cee576001915050610d01565b8080600101915050610c38565b50600090505b919050565b6040518060a0016040528060008152602001606081526020016060815260200160608152602001600081525090565b828054828255906000526020600020908101928215610d7d579160200282015b82811115610d7c578251829081610d6c9190611dc7565b5091602001919060010190610d55565b5b509050610d8a9190610d8e565b5090565b5b80821115610dae5760008181610da59190610db2565b50600101610d8f565b5090565b508054610dbe90611807565b6000825580601f10610dd05750610def565b601f016020900490600052602060002090810190610dee9190610df2565b5b50565b5b80821115610e0b576000816000905550600101610df3565b5090565b600081519050919050565b600082825260208201905092915050565b6000819050602082019050919050565b6000819050919050565b610e4e81610e3b565b82525050565b600081519050919050565b600082825260208201905092915050565b6000819050602082019050919050565b600081519050919050565b600082825260208201905092915050565b60005b83811015610eba578082015181840152602081019050610e9f565b60008484015250505050565b6000601f19601f8301169050919050565b6000610ee282610e80565b610eec8185610e8b565b9350610efc818560208601610e9c565b610f0581610ec6565b840191505092915050565b6000610f1c8383610ed7565b905092915050565b6000602082019050919050565b6000610f3c82610e54565b610f468185610e5f565b935083602082028501610f5885610e70565b8060005b85811015610f945784840389528151610f758582610f10565b9450610f8083610f24565b925060208a01995050600181019050610f5c565b50829750879550505050505092915050565b600060a083016000830151610fbe6000860182610e45565b5060208301518482036020860152610fd68282610f31565b91505060408301518482036040860152610ff08282610ed7565b9150506060830151848203606086015261100a8282610ed7565b915050608083015161101f6080860182610e45565b508091505092915050565b60006110368383610fa6565b905092915050565b6000602082019050919050565b600061105682610e0f565b6110608185610e1a565b93508360208202850161107285610e2b565b8060005b858110156110ae578484038952815161108f858261102a565b945061109a8361103e565b925060208a01995050600181019050611076565b50829750879550505050505092915050565b600060208201905081810360008301526110da818461104b565b905092915050565b6000604051905090565b600080fd5b600080fd5b6000819050919050565b611109816110f6565b811461111457600080fd5b50565b60008135905061112681611100565b92915050565b600060208284031215611142576111416110ec565b5b600061115084828501611117565b91505092915050565b600081519050919050565b600082825260208201905092915050565b6000819050602082019050919050565b60408201600082015161119b6000850182610e45565b5060208201516111ae6020850182610e45565b50505050565b60006111c08383611185565b60408301905092915050565b6000602082019050919050565b60006111e482611159565b6111ee8185611164565b93506111f983611175565b8060005b8381101561122a57815161121188826111b4565b975061121c836111cc565b9250506001810190506111fd565b5085935050505092915050565b6000602082019050818103600083015261125181846111d9565b905092915050565b600073ffffffffffffffffffffffffffffffffffffffff82169050919050565b600061128482611259565b9050919050565b61129481611279565b82525050565b60006020820190506112af600083018461128b565b92915050565b6112be81610e3b565b81146112c957600080fd5b50565b6000813590506112db816112b5565b92915050565b6000602082840312156112f7576112f66110ec565b5b6000611305848285016112cc565b91505092915050565b600060a0830160008301516113266000860182610e45565b506020830151848203602086015261133e8282610f31565b915050604083015184820360408601526113588282610ed7565b915050606083015184820360608601526113728282610ed7565b91505060808301516113876080860182610e45565b508091505092915050565b600060208201905081810360008301526113ac818461130e565b905092915050565b6000806000606084860312156113cd576113cc6110ec565b5b60006113db868287016112cc565b93505060206113ec868287016112cc565b92505060406113fd86828701611117565b9150509250925092565b600080fd5b7f4e487b7100000000000000000000000000000000000000000000000000000000600052604160045260246000fd5b61144482610ec6565b810181811067ffffffffffffffff821117156114635761146261140c565b5b80604052505050565b60006114766110e2565b9050611482828261143b565b919050565b600067ffffffffffffffff8211156114a2576114a161140c565b5b602082029050602081019050919050565b600080fd5b600080fd5b600067ffffffffffffffff8211156114d8576114d761140c565b5b6114e182610ec6565b9050602081019050919050565b82818337600083830152505050565b600061151061150b846114bd565b61146c565b90508281526020810184848401111561152c5761152b6114b8565b5b6115378482856114ee565b509392505050565b600082601f83011261155457611553611407565b5b81356115648482602086016114fd565b91505092915050565b600061158061157b84611487565b61146c565b905080838252602082019050602084028301858111156115a3576115a26114b3565b5b835b818110156115ea57803567ffffffffffffffff8111156115c8576115c7611407565b5b8086016115d5898261153f565b855260208501945050506020810190506115a5565b5050509392505050565b600082601f83011261160957611608611407565b5b813561161984826020860161156d565b91505092915050565b6000806000806080858703121561163c5761163b6110ec565b5b600085013567ffffffffffffffff81111561165a576116596110f1565b5b611666878288016115f4565b945050602085013567ffffffffffffffff811115611687576116866110f1565b5b6116938782880161153f565b935050604085013567ffffffffffffffff8111156116b4576116b36110f1565b5b6116c08782880161153f565b92505060606116d1878288016112cc565b91505092959194509250565b600081519050919050565b600082825260208201905092915050565b6000819050602082019050919050565b60006117158383610e45565b60208301905092915050565b6000602082019050919050565b6000611739826116dd565b61174381856116e8565b935061174e836116f9565b8060005b8381101561177f5781516117668882611709565b975061177183611721565b925050600181019050611752565b5085935050505092915050565b600060208201905081810360008301526117a6818461172e565b905092915050565b6117b781610e3b565b82525050565b60006020820190506117d260008301846117ae565b92915050565b7f4e487b7100000000000000000000000000000000000000000000000000000000600052602260045260246000fd5b6000600282049050600182168061181f57607f821691505b602082108103611832576118316117d8565b5b50919050565b600082825260208201905092915050565b7f596f7520617265206e6f74206f776e6572206f66207468697320636f6e74726160008201527f6374000000000000000000000000000000000000000000000000000000000000602082015250565b60006118a5602283611838565b91506118b082611849565b604082019050919050565b600060208201905081810360008301526118d481611898565b9050919050565b7f4e487b7100000000000000000000000000000000000000000000000000000000600052603260045260246000fd5b7f596f752063616e6e6f742075736520746869732066756e63696f6e0000000000600082015250565b6000611940601b83611838565b915061194b8261190a565b602082019050919050565b6000602082019050818103600083015261196f81611933565b9050919050565b7f5468697320766f74696e6720646f65736e277420657869737400000000000000600082015250565b60006119ac601983611838565b91506119b782611976565b602082019050919050565b600060208201905081810360008301526119db8161199f565b9050919050565b7f45787069726174696f6e2074696d65206f6620766f74696e6720697320676f6e60008201527f6500000000000000000000000000000000000000000000000000000000000000602082015250565b6000611a3e602183611838565b9150611a49826119e2565b604082019050919050565b60006020820190508181036000830152611a6d81611a31565b9050919050565b7f596f7520616c726561647920766f746500000000000000000000000000000000600082015250565b6000611aaa601083611838565b9150611ab582611a74565b602082019050919050565b60006020820190508181036000830152611ad981611a9d565b9050919050565b7f4e487b7100000000000000000000000000000000000000000000000000000000600052601160045260246000fd5b6000611b1a82610e3b565b9150611b2583610e3b565b9250828203905081811115611b3d57611b3c611ae0565b5b92915050565b7f596f7520706173732077726f6e67206f7074696f6e0000000000000000000000600082015250565b6000611b79601583611838565b9150611b8482611b43565b602082019050919050565b60006020820190508181036000830152611ba881611b6c565b9050919050565b7f596f7520617265206e6f74206368616972706572736f6e000000000000000000600082015250565b6000611be5601783611838565b9150611bf082611baf565b602082019050919050565b60006020820190508181036000830152611c1481611bd8565b9050919050565b60008190508160005260206000209050919050565b60006020601f8301049050919050565b600082821b905092915050565b600060088302611c7d7fffffffffffffffffffffffffffffffffffffffffffffffffffffffffffffffff82611c40565b611c878683611c40565b95508019841693508086168417925050509392505050565b6000819050919050565b6000611cc4611cbf611cba84610e3b565b611c9f565b610e3b565b9050919050565b6000819050919050565b611cde83611ca9565b611cf2611cea82611ccb565b848454611c4d565b825550505050565b600090565b611d07611cfa565b611d12818484611cd5565b505050565b5b81811015611d3657611d2b600082611cff565b600181019050611d18565b5050565b601f821115611d7b57611d4c81611c1b565b611d5584611c30565b81016020851015611d64578190505b611d78611d7085611c30565b830182611d17565b50505b505050565b600082821c905092915050565b6000611d9e60001984600802611d80565b1980831691505092915050565b6000611db78383611d8d565b9150826002028217905092915050565b611dd082610e80565b67ffffffffffffffff811115611de957611de861140c565b5b611df38254611807565b611dfe828285611d3a565b600060209050601f831160018114611e315760008415611e1f578287015190505b611e298582611dab565b865550611e91565b601f198416611e3f86611c1b565b60005b82811015611e6757848901518255600182019150602085019450602081019050611e42565b86831015611e845784890151611e80601f891682611d8d565b8355505b6001600288020188555050505b505050505050565b6000611ea482610e3b565b91507fffffffffffffffffffffffffffffffffffffffffffffffffffffffffffffffff8203611ed657611ed5611ae0565b5b60018201905091905056fea26469706673582212209f136acb1e59daeb2b188ea255d1fcf8394b8566550d06e747f4b3486b7f285f64736f6c63430008180033",
  "linkReferences": {},
  "deployedLinkReferences": {}
}